:1000000000308A00182800001230BA02031C17289A
:100010003A3084008313FC3080050310800C800C80
:1000200000080319172815280000800B1428080061
:10003000831603170908C039890003131F129F1282
:100040000030031788008312870188018901831318
:100050001F3083050030831603138800FF308500AE
:1000600003170908C039890003131F129F120F30AC
:1000700003178800831203131F139F1783169F17FC
:1000800083121F141430A1000A30A2000330A40010
:10009000E830A3000330A600E830A5000330A80034
:1000A000E830A7000330AA00E830A9000030F800CB
:1000B0001F08C33978049F000630F700F70B5E284D
:1000C00000009F149F18622883161E088312AB003D
:1000D0001E08AC000430F8001F08C33978049F00E4
:1000E0000630F700F70B722800009F149F1876283F
:1000F00083161E088312AD001E08AE000830F800FB
:100100001F08C33978049F000630F700F70B8628D4
:1001100000009F149F188A2883161E088312AF00C0
:100120001E08B0000C30F8001F08C33978049F0087
:100130000630F700F70B9A2800009F149F189E289E
:1001400083161E088312B1001E08B2002D082B0270
:10015000B7002C08B8002E08031C2E0FB802380870
:10016000B6003708B50031082F02B7003008B800D4
:100170003208031C320FB8023808B4003708B30045
:10018000B608031DC728350822020318642922086F
:100190002B07F8002C08FA000318FA0A2E087A0236
:1001A000031C1629031DD82878082D0203181629C8
:1001B00083168810831288142408B700B70AB7037F
:1001C0000319E628FF30BA000420DF282308BA000C
:1001D000042083168810831288102308203CB7005F
:1001E0004E30B8002408031C240FB8023808B900A8
:1001F000B90AB90303190029FF30BA000420F9280D
:100200003708BA0004202408A6002308A500240803
:10021000073C031C1529031D11292308D03C031C8E
:1002200015292108A3070318A40A632922082B070C
:10023000F8002C08FA000318FA0A7A082E02031CA8
:100240006329031D27292D087802031863298316C3
:100250008810831288142608B700B70AB703031959
:100260003529FF30BA0004202E292508BA000420C1
:1002700083168810831288102508203CB7004E3062
:10028000B8002608031C260FB8023808B900B90ABE
:10029000B90303194F29FF30BA0004204829370851
:1002A000BA0004202608A4002508A300A608031D00
:1002B0005D292508633C031863292108A502003045
:1002C000031C0130A6026829831688108312881047
:1002D000B408031D6F29330822020318102A2208CC
:1002E0003107F8003208FA000318FA0A30087A02D7
:1002F000031CBE29031D802978082F020318BE297C
:1003000083160810831208142808B700B70AB70329
:1003100003198E29FF30BA00042087292708BA0064
:10032000042083160810831208102708203CB70009
:100330004E30B8002808031C280FB8023808B9004E
:10034000B90AB9030319A829FF30BA000420A1296A
:100350003708BA0004202808AA002708A90028089E
:10036000073C031CBD29031DB9292708D03C031CE9
:10037000BD292108A7070318A80A102A2208310757
:10038000F8003208FA000318FA0A7A083002031C4F
:100390000C2A031DCF292F08780203180C2A831674
:1003A0000810831208142A08B700B70AB703031904
:1003B000DD29FF30BA000420D6292908BA0004201C
:1003C00083160810831208102908203CB7004E300D
:1003D000B8002A08031C2A0FB8023808B900B90A65
:1003E000B9030319F729FF30BA000420F0293708B0
:1003F000BA0004202A08A8002908A700AA08031D9B
:10040000052A2908633C03180B2A2108A902003099
:10041000031C0130AA02102A831608108312081048
:0404200056286300F7
:04400E00F12CFF3F53
:00000001FF
;PIC16F887
;CRC=38C0  CREATED="05-Jan-24 22:22"
